{
  "contractName": "CharityToken",
  "abi": [
    {
      "anonymous": false,
      "inputs": [
        {
          "indexed": true,
          "internalType": "address",
          "name": "_owner",
          "type": "address"
        },
        {
          "indexed": true,
          "internalType": "address",
          "name": "_spender",
          "type": "address"
        },
        {
          "indexed": false,
          "internalType": "uint256",
          "name": "_value",
          "type": "uint256"
        }
      ],
      "name": "Approval",
      "type": "event"
    },
    {
      "anonymous": false,
      "inputs": [
        {
          "indexed": true,
          "internalType": "address",
          "name": "_from",
          "type": "address"
        },
        {
          "indexed": true,
          "internalType": "address",
          "name": "_to",
          "type": "address"
        },
        {
          "indexed": false,
          "internalType": "uint256",
          "name": "_value",
          "type": "uint256"
        }
      ],
      "name": "Transfer",
      "type": "event"
    },
    {
      "inputs": [
        {
          "internalType": "address",
          "name": "",
          "type": "address"
        },
        {
          "internalType": "address",
          "name": "",
          "type": "address"
        }
      ],
      "name": "allowance",
      "outputs": [
        {
          "internalType": "uint256",
          "name": "",
          "type": "uint256"
        }
      ],
      "stateMutability": "view",
      "type": "function",
      "constant": true
    },
    {
      "inputs": [
        {
          "internalType": "address",
          "name": "",
          "type": "address"
        }
      ],
      "name": "balanceOf",
      "outputs": [
        {
          "internalType": "uint256",
          "name": "",
          "type": "uint256"
        }
      ],
      "stateMutability": "view",
      "type": "function",
      "constant": true
    },
    {
      "inputs": [],
      "name": "charityAddress",
      "outputs": [
        {
          "internalType": "address payable",
          "name": "",
          "type": "address"
        }
      ],
      "stateMutability": "view",
      "type": "function",
      "constant": true
    },
    {
      "inputs": [],
      "name": "charityAmount",
      "outputs": [
        {
          "internalType": "uint256",
          "name": "",
          "type": "uint256"
        }
      ],
      "stateMutability": "view",
      "type": "function",
      "constant": true
    },
    {
      "inputs": [],
      "name": "charityRequestCount",
      "outputs": [
        {
          "internalType": "uint256",
          "name": "",
          "type": "uint256"
        }
      ],
      "stateMutability": "view",
      "type": "function",
      "constant": true
    },
    {
      "inputs": [
        {
          "internalType": "address",
          "name": "",
          "type": "address"
        }
      ],
      "name": "donators",
      "outputs": [
        {
          "internalType": "uint256",
          "name": "",
          "type": "uint256"
        }
      ],
      "stateMutability": "view",
      "type": "function",
      "constant": true
    },
    {
      "inputs": [],
      "name": "name",
      "outputs": [
        {
          "internalType": "string",
          "name": "",
          "type": "string"
        }
      ],
      "stateMutability": "view",
      "type": "function",
      "constant": true
    },
    {
      "inputs": [
        {
          "internalType": "uint256",
          "name": "",
          "type": "uint256"
        }
      ],
      "name": "onGoingCharity",
      "outputs": [
        {
          "internalType": "uint256",
          "name": "id",
          "type": "uint256"
        },
        {
          "internalType": "string",
          "name": "name",
          "type": "string"
        },
        {
          "internalType": "string",
          "name": "symbol",
          "type": "string"
        },
        {
          "internalType": "uint256",
          "name": "raiseGoal",
          "type": "uint256"
        },
        {
          "internalType": "uint256",
          "name": "ammountRaised",
          "type": "uint256"
        },
        {
          "internalType": "address payable",
          "name": "charityAddress",
          "type": "address"
        },
        {
          "internalType": "bool",
          "name": "live",
          "type": "bool"
        },
        {
          "internalType": "string",
          "name": "cause",
          "type": "string"
        },
        {
          "internalType": "string",
          "name": "image",
          "type": "string"
        }
      ],
      "stateMutability": "view",
      "type": "function",
      "constant": true
    },
    {
      "inputs": [],
      "name": "raiseGoal",
      "outputs": [
        {
          "internalType": "uint256",
          "name": "",
          "type": "uint256"
        }
      ],
      "stateMutability": "view",
      "type": "function",
      "constant": true
    },
    {
      "inputs": [],
      "name": "symbol",
      "outputs": [
        {
          "internalType": "string",
          "name": "",
          "type": "string"
        }
      ],
      "stateMutability": "view",
      "type": "function",
      "constant": true
    },
    {
      "inputs": [],
      "name": "tokenPrice",
      "outputs": [
        {
          "internalType": "uint256",
          "name": "",
          "type": "uint256"
        }
      ],
      "stateMutability": "view",
      "type": "function",
      "constant": true
    },
    {
      "inputs": [],
      "name": "totalSupply",
      "outputs": [
        {
          "internalType": "uint256",
          "name": "",
          "type": "uint256"
        }
      ],
      "stateMutability": "view",
      "type": "function",
      "constant": true
    },
    {
      "inputs": [
        {
          "internalType": "uint256",
          "name": "_initialSupply",
          "type": "uint256"
        },
        {
          "internalType": "string",
          "name": "image",
          "type": "string"
        },
        {
          "internalType": "string",
          "name": "cause",
          "type": "string"
        }
      ],
      "name": "createToken",
      "outputs": [],
      "stateMutability": "nonpayable",
      "type": "function"
    },
    {
      "inputs": [
        {
          "internalType": "address",
          "name": "_spender",
          "type": "address"
        },
        {
          "internalType": "uint256",
          "name": "_value",
          "type": "uint256"
        }
      ],
      "name": "approve",
      "outputs": [
        {
          "internalType": "bool",
          "name": "success",
          "type": "bool"
        }
      ],
      "stateMutability": "nonpayable",
      "type": "function"
    },
    {
      "inputs": [
        {
          "internalType": "uint256",
          "name": "_id",
          "type": "uint256"
        },
        {
          "internalType": "uint256",
          "name": "value",
          "type": "uint256"
        }
      ],
      "name": "donateToCharity",
      "outputs": [],
      "stateMutability": "payable",
      "type": "function",
      "payable": true
    },
    {
      "inputs": [],
      "name": "claimTokens",
      "outputs": [],
      "stateMutability": "payable",
      "type": "function",
      "payable": true
    },
    {
      "inputs": [
        {
          "internalType": "address",
          "name": "_to",
          "type": "address"
        },
        {
          "internalType": "uint256",
          "name": "_value",
          "type": "uint256"
        }
      ],
      "name": "transfer",
      "outputs": [
        {
          "internalType": "bool",
          "name": "success",
          "type": "bool"
        }
      ],
      "stateMutability": "nonpayable",
      "type": "function"
    },
    {
      "inputs": [
        {
          "internalType": "address",
          "name": "_from",
          "type": "address"
        },
        {
          "internalType": "address",
          "name": "_to",
          "type": "address"
        },
        {
          "internalType": "uint256",
          "name": "_value",
          "type": "uint256"
        }
      ],
      "name": "transferFrom",
      "outputs": [
        {
          "internalType": "bool",
          "name": "success",
          "type": "bool"
        }
      ],
      "stateMutability": "nonpayable",
      "type": "function"
    }
  ],
  "bytecode": "0x60806040526000600255600060075534801561001a57600080fd5b50611f178061002a6000396000f3fe6080604052600436106101085760003560e01c80637ff9b59611610095578063afcf2fc411610064578063afcf2fc414610744578063b1037e781461079b578063d24f8cdd14610904578063dbc945c014610969578063dd62ed3e1461099457610108565b80637ff9b596146105eb57806395d89b4114610616578063a3e9436c146106a6578063a9059cbb146106d157610108565b806323b872dd116100dc57806323b872dd1461048657806348c54b9d14610519578063709fadea1461052357806370a082311461054e5780637c296059146105b357610108565b8062eb44e31461010d57806306fdde0314610358578063095ea7b3146103e857806318160ddd1461045b575b600080fd5b34801561011957600080fd5b506101466004803603602081101561013057600080fd5b8101908080359060200190929190505050610a19565b604051808a815260200180602001806020018981526020018881526020018773ffffffffffffffffffffffffffffffffffffffff1673ffffffffffffffffffffffffffffffffffffffff16815260200186151515158152602001806020018060200185810385528d818151815260200191508051906020019080838360005b838110156101e05780820151818401526020810190506101c5565b50505050905090810190601f16801561020d5780820380516001836020036101000a031916815260200191505b5085810384528c818151815260200191508051906020019080838360005b8381101561024657808201518184015260208101905061022b565b50505050905090810190601f1680156102735780820380516001836020036101000a031916815260200191505b50858103835287818151815260200191508051906020019080838360005b838110156102ac578082015181840152602081019050610291565b50505050905090810190601f1680156102d95780820380516001836020036101000a031916815260200191505b50858103825286818151815260200191508051906020019080838360005b838110156103125780820151818401526020810190506102f7565b50505050905090810190601f16801561033f5780820380516001836020036101000a031916815260200191505b509d505050505050505050505050505060405180910390f35b34801561036457600080fd5b5061036d610cf4565b6040518080602001828103825283818151815260200191508051906020019080838360005b838110156103ad578082015181840152602081019050610392565b50505050905090810190601f1680156103da5780820380516001836020036101000a031916815260200191505b509250505060405180910390f35b3480156103f457600080fd5b506104416004803603604081101561040b57600080fd5b81019080803573ffffffffffffffffffffffffffffffffffffffff16906020019092919080359060200190929190505050610d92565b604051808215151515815260200191505060405180910390f35b34801561046757600080fd5b50610470610ede565b6040518082815260200191505060405180910390f35b34801561049257600080fd5b506104ff600480360360608110156104a957600080fd5b81019080803573ffffffffffffffffffffffffffffffffffffffff169060200190929190803573ffffffffffffffffffffffffffffffffffffffff16906020019092919080359060200190929190505050610ee4565b604051808215151515815260200191505060405180910390f35b61052161114f565b005b34801561052f57600080fd5b50610538611217565b6040518082815260200191505060405180910390f35b34801561055a57600080fd5b5061059d6004803603602081101561057157600080fd5b81019080803573ffffffffffffffffffffffffffffffffffffffff16906020019092919050505061121d565b6040518082815260200191505060405180910390f35b6105e9600480360360408110156105c957600080fd5b810190808035906020019092919080359060200190929190505050611235565b005b3480156105f757600080fd5b50610600611768565b6040518082815260200191505060405180910390f35b34801561062257600080fd5b5061062b61176e565b6040518080602001828103825283818151815260200191508051906020019080838360005b8381101561066b578082015181840152602081019050610650565b50505050905090810190601f1680156106985780820380516001836020036101000a031916815260200191505b509250505060405180910390f35b3480156106b257600080fd5b506106bb61180c565b6040518082815260200191505060405180910390f35b3480156106dd57600080fd5b5061072a600480360360408110156106f457600080fd5b81019080803573ffffffffffffffffffffffffffffffffffffffff16906020019092919080359060200190929190505050611812565b604051808215151515815260200191505060405180910390f35b34801561075057600080fd5b506107596118d0565b604051808273ffffffffffffffffffffffffffffffffffffffff1673ffffffffffffffffffffffffffffffffffffffff16815260200191505060405180910390f35b3480156107a757600080fd5b50610902600480360360608110156107be57600080fd5b8101908080359060200190929190803590602001906401000000008111156107e557600080fd5b8201836020820111156107f757600080fd5b8035906020019184600183028401116401000000008311171561081957600080fd5b91908080601f016020809104026020016040519081016040528093929190818152602001838380828437600081840152601f19601f8201169050808301925050505050505091929192908035906020019064010000000081111561087c57600080fd5b82018360208201111561088e57600080fd5b803590602001918460018302840111640100000000831117156108b057600080fd5b91908080601f016020809104026020016040519081016040528093929190818152602001838380828437600081840152601f19601f8201169050808301925050505050505091929192905050506118f6565b005b34801561091057600080fd5b506109536004803603602081101561092757600080fd5b81019080803573ffffffffffffffffffffffffffffffffffffffff169060200190929190505050611cf1565b6040518082815260200191505060405180910390f35b34801561097557600080fd5b5061097e611d09565b6040518082815260200191505060405180910390f35b3480156109a057600080fd5b50610a03600480360360408110156109b757600080fd5b81019080803573ffffffffffffffffffffffffffffffffffffffff169060200190929190803573ffffffffffffffffffffffffffffffffffffffff169060200190929190505050611d0f565b6040518082815260200191505060405180910390f35b6009602052806000526040600020600091509050806000015490806001018054600181600116156101000203166002900480601f016020809104026020016040519081016040528092919081815260200182805460018160011615610100020316600290048015610acb5780601f10610aa057610100808354040283529160200191610acb565b820191906000526020600020905b815481529060010190602001808311610aae57829003601f168201915b505050505090806002018054600181600116156101000203166002900480601f016020809104026020016040519081016040528092919081815260200182805460018160011615610100020316600290048015610b695780601f10610b3e57610100808354040283529160200191610b69565b820191906000526020600020905b815481529060010190602001808311610b4c57829003601f168201915b5050505050908060030154908060040154908060050160009054906101000a900473ffffffffffffffffffffffffffffffffffffffff16908060050160149054906101000a900460ff1690806006018054600181600116156101000203166002900480601f016020809104026020016040519081016040528092919081815260200182805460018160011615610100020316600290048015610c4c5780601f10610c2157610100808354040283529160200191610c4c565b820191906000526020600020905b815481529060010190602001808311610c2f57829003601f168201915b505050505090806007018054600181600116156101000203166002900480601f016020809104026020016040519081016040528092919081815260200182805460018160011615610100020316600290048015610cea5780601f10610cbf57610100808354040283529160200191610cea565b820191906000526020600020905b815481529060010190602001808311610ccd57829003601f168201915b5050505050905089565b60008054600181600116156101000203166002900480601f016020809104026020016040519081016040528092919081815260200182805460018160011615610100020316600290048015610d8a5780601f10610d5f57610100808354040283529160200191610d8a565b820191906000526020600020905b815481529060010190602001808311610d6d57829003601f168201915b505050505081565b6000600460009054906101000a900473ffffffffffffffffffffffffffffffffffffffff1673ffffffffffffffffffffffffffffffffffffffff168373ffffffffffffffffffffffffffffffffffffffff1614610dee57600080fd5b81600b60003373ffffffffffffffffffffffffffffffffffffffff1673ffffffffffffffffffffffffffffffffffffffff16815260200190815260200160002060008573ffffffffffffffffffffffffffffffffffffffff1673ffffffffffffffffffffffffffffffffffffffff168152602001908152602001600020819055508273ffffffffffffffffffffffffffffffffffffffff163373ffffffffffffffffffffffffffffffffffffffff167f8c5be1e5ebec7d5bd14f71427d1e84f3dd0314c0f7b2291e5b200ac8c7c3b925846040518082815260200191505060405180910390a36001905092915050565b60025481565b6000600a60008573ffffffffffffffffffffffffffffffffffffffff1673ffffffffffffffffffffffffffffffffffffffff16815260200190815260200160002054821115610f3257600080fd5b600b60008573ffffffffffffffffffffffffffffffffffffffff1673ffffffffffffffffffffffffffffffffffffffff16815260200190815260200160002060003373ffffffffffffffffffffffffffffffffffffffff1673ffffffffffffffffffffffffffffffffffffffff16815260200190815260200160002054821115610fbb57600080fd5b81600a60008673ffffffffffffffffffffffffffffffffffffffff1673ffffffffffffffffffffffffffffffffffffffff1681526020019081526020016000206000828254039250508190555081600a60008573ffffffffffffffffffffffffffffffffffffffff1673ffffffffffffffffffffffffffffffffffffffff1681526020019081526020016000206000828254019250508190555081600b60008673ffffffffffffffffffffffffffffffffffffffff1673ffffffffffffffffffffffffffffffffffffffff16815260200190815260200160002060003373ffffffffffffffffffffffffffffffffffffffff1673ffffffffffffffffffffffffffffffffffffffff168152602001908152602001600020600082825403925050819055508273ffffffffffffffffffffffffffffffffffffffff168473ffffffffffffffffffffffffffffffffffffffff167fddf252ad1be2c89b69c2b068fc378daa952ba7f163c4a11628f55a4df523b3ef846040518082815260200191505060405180910390a3600190509392505050565b6000600860003373ffffffffffffffffffffffffffffffffffffffff1673ffffffffffffffffffffffffffffffffffffffff16815260200190815260200160002054905060008111611209576040517f08c379a000000000000000000000000000000000000000000000000000000000815260040180806020018281038252600f8152602001807f4e6f20546f6b656e204561726e6564000000000000000000000000000000000081525060200191505060405180910390fd5b6112133382611812565b5050565b60075481565b600a6020528060005260406000206000915090505481565b61123d611db7565b600960008481526020019081526020016000206040518061012001604052908160008201548152602001600182018054600181600116156101000203166002900480601f0160208091040260200160405190810160405280929190818152602001828054600181600116156101000203166002900480156112ff5780601f106112d4576101008083540402835291602001916112ff565b820191906000526020600020905b8154815290600101906020018083116112e257829003601f168201915b50505050508152602001600282018054600181600116156101000203166002900480601f0160208091040260200160405190810160405280929190818152602001828054600181600116156101000203166002900480156113a15780601f10611376576101008083540402835291602001916113a1565b820191906000526020600020905b81548152906001019060200180831161138457829003601f168201915b5050505050815260200160038201548152602001600482015481526020016005820160009054906101000a900473ffffffffffffffffffffffffffffffffffffffff1673ffffffffffffffffffffffffffffffffffffffff1673ffffffffffffffffffffffffffffffffffffffff1681526020016005820160149054906101000a900460ff16151515158152602001600682018054600181600116156101000203166002900480601f0160208091040260200160405190810160405280929190818152602001828054600181600116156101000203166002900480156114c85780601f1061149d576101008083540402835291602001916114c8565b820191906000526020600020905b8154815290600101906020018083116114ab57829003601f168201915b50505050508152602001600782018054600181600116156101000203166002900480601f01602080910402602001604051908101604052809291908181526020018280546001816001161561010002031660029004801561156a5780601f1061153f5761010080835404028352916020019161156a565b820191906000526020600020905b81548152906001019060200180831161154d57829003601f168201915b505050505081525050905060008160a001519050828260600151038260600181815250508282608001818151019150818152505082600a60008373ffffffffffffffffffffffffffffffffffffffff1673ffffffffffffffffffffffffffffffffffffffff168152602001908152602001600020600082825403925050819055508160096000868152602001908152602001600020600082015181600001556020820151816001019080519060200190611625929190611e1b565b506040820151816002019080519060200190611642929190611e1b565b50606082015181600301556080820151816004015560a08201518160050160006101000a81548173ffffffffffffffffffffffffffffffffffffffff021916908373ffffffffffffffffffffffffffffffffffffffff16021790555060c08201518160050160146101000a81548160ff02191690831515021790555060e08201518160060190805190602001906116da929190611e1b565b506101008201518160070190805190602001906116f8929190611e1b565b5090505061170d660997a2bce4c00084611d34565b60038190555082600860003373ffffffffffffffffffffffffffffffffffffffff1673ffffffffffffffffffffffffffffffffffffffff168152602001908152602001600020819055506117613384611812565b5050505050565b60065481565b60018054600181600116156101000203166002900480601f0160208091040260200160405190810160405280929190818152602001828054600181600116156101000203166002900480156118045780601f106117d957610100808354040283529160200191611804565b820191906000526020600020905b8154815290600101906020018083116117e757829003601f168201915b505050505081565b60055481565b600081600a60003373ffffffffffffffffffffffffffffffffffffffff1673ffffffffffffffffffffffffffffffffffffffff168152602001908152602001600020600082825401925050819055508273ffffffffffffffffffffffffffffffffffffffff163373ffffffffffffffffffffffffffffffffffffffff167fddf252ad1be2c89b69c2b068fc378daa952ba7f163c4a11628f55a4df523b3ef846040518082815260200191505060405180910390a36001905092915050565b600460009054906101000a900473ffffffffffffffffffffffffffffffffffffffff1681565b6040518060400160405280600881526020017f4465446f6e61746500000000000000000000000000000000000000000000000081525060009080519060200190611941929190611e1b565b506040518060400160405280600381526020017f44444e00000000000000000000000000000000000000000000000000000000008152506001908051906020019061198d929190611e1b565b5082600a60003373ffffffffffffffffffffffffffffffffffffffff1673ffffffffffffffffffffffffffffffffffffffff16815260200190815260200160002081905550826002600082825401925050819055508260058190555033600460006101000a81548173ffffffffffffffffffffffffffffffffffffffff021916908373ffffffffffffffffffffffffffffffffffffffff160217905550660997a2bce4c000600681905550600760008154809291906001019190505550604051806101200160405280600754815260200160008054600181600116156101000203166002900480601f016020809104026020016040519081016040528092919081815260200182805460018160011615610100020316600290048015611af45780601f10611ac957610100808354040283529160200191611af4565b820191906000526020600020905b815481529060010190602001808311611ad757829003601f168201915b5050505050815260200160018054600181600116156101000203166002900480601f016020809104026020016040519081016040528092919081815260200182805460018160011615610100020316600290048015611b945780601f10611b6957610100808354040283529160200191611b94565b820191906000526020600020905b815481529060010190602001808311611b7757829003601f168201915b50505050508152602001848152602001600081526020013373ffffffffffffffffffffffffffffffffffffffff16815260200160011515815260200182815260200183815250600960006007548152602001908152602001600020600082015181600001556020820151816001019080519060200190611c15929190611e1b565b506040820151816002019080519060200190611c32929190611e1b565b50606082015181600301556080820151816004015560a08201518160050160006101000a81548173ffffffffffffffffffffffffffffffffffffffff021916908373ffffffffffffffffffffffffffffffffffffffff16021790555060c08201518160050160146101000a81548160ff02191690831515021790555060e0820151816006019080519060200190611cca929190611e1b565b50610100820151816007019080519060200190611ce8929190611e1b565b50905050505050565b60086020528060005260406000206000915090505481565b60035481565b600b602052816000526040600020602052806000526040600020600091509150505481565b600080831415611d475760009050611db1565b818302905081838281611d5657fe5b0414611dad576040517f08c379a0000000000000000000000000000000000000000000000000000000008152600401808060200182810382526021815260200180611ec16021913960400191505060405180910390fd5b8090505b92915050565b6040518061012001604052806000815260200160608152602001606081526020016000815260200160008152602001600073ffffffffffffffffffffffffffffffffffffffff16815260200160001515815260200160608152602001606081525090565b828054600181600116156101000203166002900490600052602060002090601f016020900481019282601f10611e5c57805160ff1916838001178555611e8a565b82800160010185558215611e8a579182015b82811115611e89578251825591602001919060010190611e6e565b5b509050611e979190611e9b565b5090565b611ebd91905b80821115611eb9576000816000905550600101611ea1565b5090565b9056fe536166654d6174683a206d756c7469706c69636174696f6e206f766572666c6f77a2646970667358221220b17039ca6bcdd800ddd6a59975ce7a956961d3b3c0131964d78bcfe49efcd84564736f6c63430006060033",
  "immutableReferences": {},
  "source": "pragma solidity >=0.6.0 <0.7.0;\n\ncontract CharityToken {\n  string  public name;\n  string  public symbol;\n  uint256 public totalSupply = 0;\n  uint public charityAmount;\n  address payable public charityAddress;\n  uint public raiseGoal;\n  uint public tokenPrice;\n  uint public charityRequestCount = 0;\n  mapping(address => uint) public donators;\n  mapping(uint => CharityRequest) public onGoingCharity;\n\n  event Transfer(\n    address indexed _from,\n    address indexed _to,\n    uint256 _value\n  );\n\n  event Approval(\n    address indexed _owner,\n    address indexed _spender,\n    uint256 _value\n  );\n\n  struct CharityRequest{\n    uint id;\n    string name;\n    string symbol;\n    uint raiseGoal;\n    uint ammountRaised;\n    address payable charityAddress;\n    bool live;\n    string cause;\n    string image;\n  }\n\n  mapping(address => uint256) public balanceOf;\n  mapping(address => mapping(address => uint256)) public allowance;\n\n  function createToken(uint256 _initialSupply, string memory image, string memory cause) public {\n    name = 'DeDonate';\n    symbol = 'DDN';\n    balanceOf[msg.sender] = _initialSupply;\n    totalSupply += _initialSupply;\n    raiseGoal = _initialSupply;\n    charityAddress = msg.sender;\n    tokenPrice = 2700000000000000;\n    charityRequestCount ++;\n\n    onGoingCharity[charityRequestCount] = CharityRequest(charityRequestCount, name, symbol, _initialSupply, 0, msg.sender, true, cause, image);\n  }\n\n\n  function approve(address _spender, uint256 _value) public returns (bool success) {\n    require(_spender == charityAddress);\n    allowance[msg.sender][_spender] = _value;\n\n    emit Approval(msg.sender, _spender, _value);\n\n    return true;\n  }\n\n  function multiply(uint x, uint y) internal pure returns (uint z) {\n    if (x == 0) {\n        return 0;\n    }\n\n    z = x * y;\n    require(z / x == y, \"SafeMath: multiplication overflow\");\n\n    return z;\n  }\n\n  function donateToCharity(uint _id, uint value) public payable {\n    CharityRequest memory _request = onGoingCharity[_id];\n    address payable _charityAddress = _request.charityAddress;\n    _request.raiseGoal = _request.raiseGoal - value;\n    _request.ammountRaised += value;\n    balanceOf[_charityAddress] -= value;\n    onGoingCharity[_id] = _request;\n    charityAmount =  multiply(2700000000000000 , value);\n\n    donators[msg.sender] = value;\n    transfer(msg.sender, value);\n    //_charityAddress.transfer(charityAmount);\n  }\n\n  function claimTokens() public payable{\n    uint val = donators[msg.sender];\n    require(val > 0, \"No Token Earned\");\n    transfer(msg.sender, val);\n  }\n  //\n  function transfer(address _to, uint256 _value) public returns (bool success) {\n    //require(totalSupply >= _value);\n\n    //raiseGoal -= _value;\n    balanceOf[msg.sender] += _value;\n\n    emit Transfer(msg.sender, _to, _value);\n\n    return true;\n  }\n\n  function transferFrom(address _from, address _to, uint256 _value) public returns (bool success) {\n    require(_value <= balanceOf[_from]);\n    require(_value <= allowance[_from][msg.sender]);\n\n    balanceOf[_from] -= _value;\n    balanceOf[_to] += _value;\n\n    allowance[_from][msg.sender] -= _value;\n\n    emit Transfer(_from, _to, _value);\n\n    return true;\n  }\n}\n",
  "sourcePath": "/Users/newsgate/Work/DeDonate/src/contracts/CharityToken.sol",
  "compiler": {
    "name": "solc",
    "version": "0.6.6+commit.6c089d02.Emscripten.clang"
  },
  "schemaVersion": "3.2.3",
  "updatedAt": "2020-11-07T05:48:01.017Z",
  "networkType": "ethereum",
  "devdoc": {
    "methods": {}
  },
  "userdoc": {
    "methods": {}
  }
}